{
  "_format": "hh-sol-artifact-1",
  "contractName": "Lottery",
  "sourceName": "contracts/lottery.sol",
  "abi": [
    {
      "inputs": [],
      "stateMutability": "nonpayable",
      "type": "constructor"
    },
    {
      "anonymous": false,
      "inputs": [
        {
          "indexed": true,
          "internalType": "address",
          "name": "winner",
          "type": "address"
        }
      ],
      "name": "WinnerPicked",
      "type": "event"
    },
    {
      "inputs": [],
      "name": "getPlayers",
      "outputs": [
        {
          "internalType": "address[]",
          "name": "",
          "type": "address[]"
        }
      ],
      "stateMutability": "view",
      "type": "function"
    },
    {
      "inputs": [],
      "name": "jaesangmom",
      "outputs": [
        {
          "internalType": "address",
          "name": "",
          "type": "address"
        }
      ],
      "stateMutability": "view",
      "type": "function"
    },
    {
      "inputs": [],
      "name": "participate",
      "outputs": [],
      "stateMutability": "payable",
      "type": "function"
    },
    {
      "inputs": [],
      "name": "pickWinner",
      "outputs": [],
      "stateMutability": "nonpayable",
      "type": "function"
    },
    {
      "inputs": [
        {
          "internalType": "uint256",
          "name": "",
          "type": "uint256"
        }
      ],
      "name": "players",
      "outputs": [
        {
          "internalType": "address",
          "name": "",
          "type": "address"
        }
      ],
      "stateMutability": "view",
      "type": "function"
    },
    {
      "inputs": [],
      "name": "winner",
      "outputs": [
        {
          "internalType": "address",
          "name": "",
          "type": "address"
        }
      ],
      "stateMutability": "view",
      "type": "function"
    }
  ],
  "bytecode": "0x6080604052348015600f57600080fd5b50600080546001600160a01b031916331790556104c1806100316000396000f3fe6080604052600436106100555760003560e01c80633d9ec65b1461005a5780635d495aea146100975780638b5b9ccc146100ae578063d11711a2146100d0578063dfbf53ae146100d8578063f71d96cb146100f8575b600080fd5b34801561006657600080fd5b5060005461007a906001600160a01b031681565b6040516001600160a01b0390911681526020015b60405180910390f35b3480156100a357600080fd5b506100ac610118565b005b3480156100ba57600080fd5b506100c3610297565b60405161008e91906103ee565b6100ac6102f9565b3480156100e457600080fd5b5060025461007a906001600160a01b031681565b34801561010457600080fd5b5061007a61011336600461043a565b610392565b60015461016c5760405162461bcd60e51b815260206004820152601960248201527f4e6f20706c617965727320696e20746865206c6f74746572790000000000000060448201526064015b60405180910390fd5b6001546000906101de604080513060601b6bffffffffffffffffffffffff191660208083019190915246603480840191909152835180840390910181526054830184528051908201206074830152426094808401919091528351808403909101815260b4909201909252805191012090565b6101e89190610453565b9050600181815481106101fd576101fd610475565b6000918252602082200154600280546001600160a01b0319166001600160a01b03909216918217905560405190917f5b690ec4a06fe979403046eaeea5b3ce38524683c3001f662c8b5a829632f7df91a26002546040516001600160a01b03909116904780156108fc02916000818181858888f19350505050158015610287573d6000803e3d6000fd5b50610294600160006103bc565b50565b606060018054806020026020016040519081016040528092919081815260200182805480156102ef57602002820191906000526020600020905b81546001600160a01b031681526001909101906020018083116102d1575b5050505050905090565b662386f26fc10000341161034f5760405162461bcd60e51b815260206004820152601b60248201527f4d696e696d756d20302e303120657468657220726571756972656400000000006044820152606401610163565b6001805480820182556000919091527fb10e2d527612073b26eecdfd717e6a320cf44b4afac2b0732d9fcbe2b7fa0cf60180546001600160a01b03191633179055565b600181815481106103a257600080fd5b6000918252602090912001546001600160a01b0316905081565b508054600082559060005260206000209081019061029491905b808211156103ea57600081556001016103d6565b5090565b602080825282518282018190526000918401906040840190835b8181101561042f5783516001600160a01b0316835260209384019390920191600101610408565b509095945050505050565b60006020828403121561044c57600080fd5b5035919050565b60008261047057634e487b7160e01b600052601260045260246000fd5b500690565b634e487b7160e01b600052603260045260246000fdfea2646970667358221220e7092225d31507fa59d87b4ab03a27eea4be1d80d06fefc399f8752fb43a078864736f6c634300081b0033",
  "linkReferences": {},
  "deployedLinkReferences": {}
}